:03000000020E24C9
:0C0E2400787FE4F6D8FD758163020E6B48
:100F0900D3EF9400EE6480948040147D6E7C00EDF4
:0F0F19001D70011CED4C70F7EF1F70E41E80E19E
:010F280022A6
:030FA500016300E5
:100B490075220A7590FFC29720930D7F147E0012BB
:100B59000F0920930375220120920D7F147E001244
:100B69000F0920920375220220910D7F147E001235
:100B79000F0920910375220320900D7F147E001226
:100B89000F092090037522047590FFC29620930DDA
:100B99007F147E00120F0920930375220520920D00
:100BA9007F147E00120F0920920375220620910DF1
:100BB9007F147E00120F0920910375220720900DE2
:100BC9007F147E00120F092090037522087590FF8B
:100BD900C29520930D7F147E00120F09209303758F
:100BE900220920920D7F147E00120F09209203E43E
:100BF900F52220910D7F147E00120F0920910375B3
:100C0900220B20900D7F147E00120F09209003758E
:100C1900220C7590FFC29420930D7F147E00120F51
:100C29000920930375220D20920D7F147E00120F67
:100C39000920920375220E2091107F147E00120F55
:100C49000920910675220FE4F56320900D7F147E2B
:0C0C590000120F09209003752210AF223A
:010C6500226C
:100F2900C2A6C2A58F80D2A77F017E00120F09C277
:080F3900A77F017E00020F09F1
:100F4100D2A6C2A58F80D2A77F017E00120F09C24F
:080F5100A77F017E00020F09D9
:100F88008D26E526BF0103148002243F4480FF120A
:030F98000F2922FC
:100EB0007F38120F297F0A7E00120F097F38120F28
:100EC000297F0A7E00120F097F38120F297F0A7EC0
:100ED00000120F097F0C120F297F06120F297F01C4
:030EE000020F29D5
:0A0F9B008B22120F88AF22020F41D3
:060EE3008B228A23892402
:100EE900120F88E4F525AB22AA23A924852582754A
:0F0EF90083001208F6FF6007120F41052580E7FE
:010F080022C6
:040C66008A278B2826
:100C6A00120F88E528452770057F30120F41C3E52A
:100C7A00276480948050107F2D120F41C3E4952879
:100C8A00F528E49527F527E4F529F52AD3E52894EC
:100C9A0000E527648094804033AB28AA277C007D36
:100CAA000AAF03AE02120923AA04AB05742B252A44
:100CBA00F8A603AE27AF287C007D0A1209238E27E7
:100CCA008F28052AE52A70C4052980C0E52A152A35
:100CDA0070021529C3E529648094804016742B2577
:100CEA002AF8E62430FF120F41E52A152A70E51585
:030CFA002980E16D
:010CFD0022D4
:040D93008A3F8B40C8
:100D9700120F88E540453F70057F30120F41E4F59B
:100DA70041F542D3E5409400E53F94004036AB401F
:100DB700AA3F7C007D10AF03AE02120923AA04AB41
:100DC7000574432542F8A603E53FC4F854F0C86804
:100DD700F53FE540C4540F48F5400542E54270C36E
:100DE700054180BFE542154270021541C3E54164E4
:100DF700809480402774432542F8E6FFC3940A4055
:100E070005EF2437800874432542F8E62430FF12A3
:0C0E17000F41E542154270D4154180D017
:010E230022AC
:100F590072696768740066616C736500323033309A
:080F690032323131303338001F
:100CFE0078097C007D007BFF7A0F79657E007F0C82
:100D0E001208D075210A120EB0C2907F507E0012CA
:100D1E000F09120B49D3EF64809489403F120B499F
:100D2E00BF10E678577C007D007B007A00790912AF
:100D3E000AD7EF7BFF70167A0F79597D017F021269
:100D4E000EE3D2907FE87E03120F0980BC7A0F79F2
:100D5E005F7D017F02120EE3C29080AD120B498FB0
:100D6E0021E521C3940A50A174302521F521AF63EA
:100D7E00056374572FF8E52126F6AB21AD637F018D
:050D8E00120F9B8084A0
:100F71005389F0438901758A91758CFFC28DD28C9A
:070F8100D2A9D2AFC2B922D0
:100E3000020CFEE493A3F8E493A34003F68001F2CE
:100E400008DFF48029E493A3F85407240CC8C333C3
:100E5000C4540F4420C8834004F456800146F6DF92
:100E6000E4800B0102040810204080900FA5E47E6E
:100E7000019360BCA3FF543F30E509541FFEE49387
:100E8000A360010ECF54C025E060A840B8E493A34E
:100E9000FAE493A3F8E493A3C8C582C8CAC583CA79
:100EA000F0A3C8C582C8CAC583CADFE9DEE780BE31
:010FA8000048
:10080000E709F608DFFA8046E709F208DFFA803EDA
:1008100088828C83E709F0A3DFFA8032E309F608C7
:10082000DFFA8078E309F208DFFA807088828C832F
:10083000E309F0A3DFFA806489828A83E0A3F608E3
:10084000DFFA805889828A83E0A3F208DFFA804CBD
:1008500080D280FA80C680D4806980F28033801094
:1008600080A680EA809A80A880DA80E280CA8033FD
:1008700089828A83ECFAE493A3C8C582C8CCC58375
:10088000CCF0A3C8C582C8CCC583CCDFE9DEE78045
:100890000D89828A83E493A3F608DFF9ECFAA9F0C4
:1008A000EDFB2289828A83ECFAE0A3C8C582C8CC1A
:1008B000C583CCF0A3C8C582C8CCC583CCDFEADE33
:1008C000E880DB89828A83E493A3F208DFF980CC95
:1008D00088F0EF60010E4E60C388F0ED2402B4048E
:1008E0000050B9F582EB2402B4040050AF23234535
:0608F00082239008507302
:1008F600BB010CE58229F582E5833AF583E02250B7
:1009060006E92582F8E622BBFE06E92582F8E22200
:0D091600E58229F582E5833AF583E493221A
:10092300C2D5EC30E709B2D5E4C39DFDE49CFCEEEF
:1009330030E715B2D5E4C39FFFE49EFE120AF4C369
:10094300E49DFDE49CFC8003120AF430D507C3E464
:060953009FFFE49EFE225E
:10095900E3F5F009E208B5F06D606B80F3E3F5F0BB
:1009690009E608B5F060605E80F387F009E608B52E
:10097900F054605280F487F009E208B5F048604607
:1009890080F488828C8387F009E0A3B5F03860365B
:1009990080F488828C8387F009E493A3B5F02760FB
:1009A9002580F388828C83E3F5F009E0A3B5F0167E
:1009B900601480F388828C83E3F5F009E493A3B58E
:1009C900F004600280F2020A84808580E7808E80CC
:1009D900D2803C8015806C807E809B80B5808B8026
:1009E900A1804F8070803A020A9089828A83ECFA4A
:1009F900E493F5F0A3C8C582C8CCC583CCE493A31E
:100A0900C8C582C8CCC583CCB5F070606E80E18959
:100A1900828A83E493F5F0A3E208B5F05E605C8016
:100A2900F289828A83E0F5F0A3E608B5F04D604BC0
:100A390080F389828A83E0F5F0A3E208B5F03C608F
:100A49003A80F389828A83E493F5F0A3E608B5F046
:100A59002A602880F2805389828A83ECFAE493F52C
:100A6900F0A3C8C582C8CCC583CCE0A3C8C582C8D9
:100A7900CCC583CCB5F004600280E27FFFB5F002FB
:100A89000F2240027F012289828A83ECFAE0F5F085
:100A9900A3C8C582C8CCC583CCE0A3C8C582C8CCCD
:100AA900C583CCB5F0D560D380E389828A83ECFA1B
:100AB900E0F5F0A3C8C582C8CCC583CCE493A3C82C
:100AC900C582C8CCC583CCB5F0B160AF80E288F0EF
:100AD900ED2402B4040050A3F582EB2402B404000F
:0B0AE900509923234582239009D2730B
:100AF400BC000BBE0029EF8DF084FFADF022E4CCE6
:100B0400F875F008EF2FFFEE33FEEC33FCEE9DECAE
:100B1400984005FCEE9DFE0FD5F0E9E4CEFD22EDF4
:100B2400F8F5F0EE8420D21CFEADF075F008EF2F3E
:100B3400FFED33FD4007985006D5F0F222C398FD2F
:050B44000FD5F0EA22CC
:00000001FF
